{
	"data": {
		"bytecode": {
			"linkReferences": {},
			"object": "60806040526802b5e3af16b18800005f5534801561001b575f80fd5b50610569806100295f395ff3fe608060405260043610610028575f3560e01c80633430a88c1461002c578063b60d428814610056575b5f80fd5b348015610037575f80fd5b50610040610060565b60405161004d919061024a565b60405180910390f35b61005e610065565b005b5f5481565b5f5461007034610155565b10156100b1576040517f08c379a00000000000000000000000000000000000000000000000000000000081526004016100a8906102bd565b60405180910390fd5b600133908060018154018082558091505060019003905f5260205f20015f9091909190916101000a81548173ffffffffffffffffffffffffffffffffffffffff021916908373ffffffffffffffffffffffffffffffffffffffff1602179055503460025f3373ffffffffffffffffffffffffffffffffffffffff1673ffffffffffffffffffffffffffffffffffffffff1681526020019081526020015f2081905550565b5f8061015f61018d565b90505f670de0b6b3a764000084836101779190610308565b6101819190610376565b90508092505050919050565b5f8073694aa1769357215de4fac081bf1f309adc32530690505f8173ffffffffffffffffffffffffffffffffffffffff1663feaf968c6040518163ffffffff1660e01b815260040160a060405180830381865afa1580156101f0573d5f803e3d5ffd5b505050506040513d601f19601f820116820180604052508101906102149190610446565b5050509150506402540be4008161022b91906104bd565b9250505090565b5f819050919050565b61024481610232565b82525050565b5f60208201905061025d5f83018461023b565b92915050565b5f82825260208201905092915050565b7f4469646e27742073656e6420656e6f75676821000000000000000000000000005f82015250565b5f6102a7601383610263565b91506102b282610273565b602082019050919050565b5f6020820190508181035f8301526102d48161029b565b9050919050565b7f4e487b71000000000000000000000000000000000000000000000000000000005f52601160045260245ffd5b5f61031282610232565b915061031d83610232565b925082820261032b81610232565b91508282048414831517610342576103416102db565b5b5092915050565b7f4e487b71000000000000000000000000000000000000000000000000000000005f52601260045260245ffd5b5f61038082610232565b915061038b83610232565b92508261039b5761039a610349565b5b828204905092915050565b5f80fd5b5f69ffffffffffffffffffff82169050919050565b6103c8816103aa565b81146103d2575f80fd5b50565b5f815190506103e3816103bf565b92915050565b5f819050919050565b6103fb816103e9565b8114610405575f80fd5b50565b5f81519050610416816103f2565b92915050565b61042581610232565b811461042f575f80fd5b50565b5f815190506104408161041c565b92915050565b5f805f805f60a0868803121561045f5761045e6103a6565b5b5f61046c888289016103d5565b955050602061047d88828901610408565b945050604061048e88828901610432565b935050606061049f88828901610432565b92505060806104b0888289016103d5565b9150509295509295909350565b5f6104c7826103e9565b91506104d2836103e9565b92508282026104e0816103e9565b91507f800000000000000000000000000000000000000000000000000000000000000084145f84121615610517576105166102db565b5b828205841483151761052c5761052b6102db565b5b509291505056fea264697066735822122045b39aa4e80696fd6f2e14c4433d37364468b284d72456076daa21e777f11ec764736f6c63430008160033",
			"opcodes": "PUSH1 0x80 PUSH1 0x40 MSTORE PUSH9 0x2B5E3AF16B1880000 PUSH0 SSTORE CALLVALUE DUP1 ISZERO PUSH2 0x1B JUMPI PUSH0 DUP1 REVERT JUMPDEST POP PUSH2 0x569 DUP1 PUSH2 0x29 PUSH0 CODECOPY PUSH0 RETURN INVALID PUSH1 0x80 PUSH1 0x40 MSTORE PUSH1 0x4 CALLDATASIZE LT PUSH2 0x28 JUMPI PUSH0 CALLDATALOAD PUSH1 0xE0 SHR DUP1 PUSH4 0x3430A88C EQ PUSH2 0x2C JUMPI DUP1 PUSH4 0xB60D4288 EQ PUSH2 0x56 JUMPI JUMPDEST PUSH0 DUP1 REVERT JUMPDEST CALLVALUE DUP1 ISZERO PUSH2 0x37 JUMPI PUSH0 DUP1 REVERT JUMPDEST POP PUSH2 0x40 PUSH2 0x60 JUMP JUMPDEST PUSH1 0x40 MLOAD PUSH2 0x4D SWAP2 SWAP1 PUSH2 0x24A JUMP JUMPDEST PUSH1 0x40 MLOAD DUP1 SWAP2 SUB SWAP1 RETURN JUMPDEST PUSH2 0x5E PUSH2 0x65 JUMP JUMPDEST STOP JUMPDEST PUSH0 SLOAD DUP2 JUMP JUMPDEST PUSH0 SLOAD PUSH2 0x70 CALLVALUE PUSH2 0x155 JUMP JUMPDEST LT ISZERO PUSH2 0xB1 JUMPI PUSH1 0x40 MLOAD PUSH32 0x8C379A000000000000000000000000000000000000000000000000000000000 DUP2 MSTORE PUSH1 0x4 ADD PUSH2 0xA8 SWAP1 PUSH2 0x2BD JUMP JUMPDEST PUSH1 0x40 MLOAD DUP1 SWAP2 SUB SWAP1 REVERT JUMPDEST PUSH1 0x1 CALLER SWAP1 DUP1 PUSH1 0x1 DUP2 SLOAD ADD DUP1 DUP3 SSTORE DUP1 SWAP2 POP POP PUSH1 0x1 SWAP1 SUB SWAP1 PUSH0 MSTORE PUSH1 0x20 PUSH0 KECCAK256 ADD PUSH0 SWAP1 SWAP2 SWAP1 SWAP2 SWAP1 SWAP2 PUSH2 0x100 EXP DUP2 SLOAD DUP2 PUSH20 0xFFFFFFFFFFFFFFFFFFFFFFFFFFFFFFFFFFFFFFFF MUL NOT AND SWAP1 DUP4 PUSH20 0xFFFFFFFFFFFFFFFFFFFFFFFFFFFFFFFFFFFFFFFF AND MUL OR SWAP1 SSTORE POP CALLVALUE PUSH1 0x2 PUSH0 CALLER PUSH20 0xFFFFFFFFFFFFFFFFFFFFFFFFFFFFFFFFFFFFFFFF AND PUSH20 0xFFFFFFFFFFFFFFFFFFFFFFFFFFFFFFFFFFFFFFFF AND DUP2 MSTORE PUSH1 0x20 ADD SWAP1 DUP2 MSTORE PUSH1 0x20 ADD PUSH0 KECCAK256 DUP2 SWAP1 SSTORE POP JUMP JUMPDEST PUSH0 DUP1 PUSH2 0x15F PUSH2 0x18D JUMP JUMPDEST SWAP1 POP PUSH0 PUSH8 0xDE0B6B3A7640000 DUP5 DUP4 PUSH2 0x177 SWAP2 SWAP1 PUSH2 0x308 JUMP JUMPDEST PUSH2 0x181 SWAP2 SWAP1 PUSH2 0x376 JUMP JUMPDEST SWAP1 POP DUP1 SWAP3 POP POP POP SWAP2 SWAP1 POP JUMP JUMPDEST PUSH0 DUP1 PUSH20 0x694AA1769357215DE4FAC081BF1F309ADC325306 SWAP1 POP PUSH0 DUP2 PUSH20 0xFFFFFFFFFFFFFFFFFFFFFFFFFFFFFFFFFFFFFFFF AND PUSH4 0xFEAF968C PUSH1 0x40 MLOAD DUP2 PUSH4 0xFFFFFFFF AND PUSH1 0xE0 SHL DUP2 MSTORE PUSH1 0x4 ADD PUSH1 0xA0 PUSH1 0x40 MLOAD DUP1 DUP4 SUB DUP2 DUP7 GAS STATICCALL ISZERO DUP1 ISZERO PUSH2 0x1F0 JUMPI RETURNDATASIZE PUSH0 DUP1 RETURNDATACOPY RETURNDATASIZE PUSH0 REVERT JUMPDEST POP POP POP POP PUSH1 0x40 MLOAD RETURNDATASIZE PUSH1 0x1F NOT PUSH1 0x1F DUP3 ADD AND DUP3 ADD DUP1 PUSH1 0x40 MSTORE POP DUP2 ADD SWAP1 PUSH2 0x214 SWAP2 SWAP1 PUSH2 0x446 JUMP JUMPDEST POP POP POP SWAP2 POP POP PUSH5 0x2540BE400 DUP2 PUSH2 0x22B SWAP2 SWAP1 PUSH2 0x4BD JUMP JUMPDEST SWAP3 POP POP POP SWAP1 JUMP JUMPDEST PUSH0 DUP2 SWAP1 POP SWAP2 SWAP1 POP JUMP JUMPDEST PUSH2 0x244 DUP2 PUSH2 0x232 JUMP JUMPDEST DUP3 MSTORE POP POP JUMP JUMPDEST PUSH0 PUSH1 0x20 DUP3 ADD SWAP1 POP PUSH2 0x25D PUSH0 DUP4 ADD DUP5 PUSH2 0x23B JUMP JUMPDEST SWAP3 SWAP2 POP POP JUMP JUMPDEST PUSH0 DUP3 DUP3 MSTORE PUSH1 0x20 DUP3 ADD SWAP1 POP SWAP3 SWAP2 POP POP JUMP JUMPDEST PUSH32 0x4469646E27742073656E6420656E6F7567682100000000000000000000000000 PUSH0 DUP3 ADD MSTORE POP JUMP JUMPDEST PUSH0 PUSH2 0x2A7 PUSH1 0x13 DUP4 PUSH2 0x263 JUMP JUMPDEST SWAP2 POP PUSH2 0x2B2 DUP3 PUSH2 0x273 JUMP JUMPDEST PUSH1 0x20 DUP3 ADD SWAP1 POP SWAP2 SWAP1 POP JUMP JUMPDEST PUSH0 PUSH1 0x20 DUP3 ADD SWAP1 POP DUP2 DUP2 SUB PUSH0 DUP4 ADD MSTORE PUSH2 0x2D4 DUP2 PUSH2 0x29B JUMP JUMPDEST SWAP1 POP SWAP2 SWAP1 POP JUMP JUMPDEST PUSH32 0x4E487B7100000000000000000000000000000000000000000000000000000000 PUSH0 MSTORE PUSH1 0x11 PUSH1 0x4 MSTORE PUSH1 0x24 PUSH0 REVERT JUMPDEST PUSH0 PUSH2 0x312 DUP3 PUSH2 0x232 JUMP JUMPDEST SWAP2 POP PUSH2 0x31D DUP4 PUSH2 0x232 JUMP JUMPDEST SWAP3 POP DUP3 DUP3 MUL PUSH2 0x32B DUP2 PUSH2 0x232 JUMP JUMPDEST SWAP2 POP DUP3 DUP3 DIV DUP5 EQ DUP4 ISZERO OR PUSH2 0x342 JUMPI PUSH2 0x341 PUSH2 0x2DB JUMP JUMPDEST JUMPDEST POP SWAP3 SWAP2 POP POP JUMP JUMPDEST PUSH32 0x4E487B7100000000000000000000000000000000000000000000000000000000 PUSH0 MSTORE PUSH1 0x12 PUSH1 0x4 MSTORE PUSH1 0x24 PUSH0 REVERT JUMPDEST PUSH0 PUSH2 0x380 DUP3 PUSH2 0x232 JUMP JUMPDEST SWAP2 POP PUSH2 0x38B DUP4 PUSH2 0x232 JUMP JUMPDEST SWAP3 POP DUP3 PUSH2 0x39B JUMPI PUSH2 0x39A PUSH2 0x349 JUMP JUMPDEST JUMPDEST DUP3 DUP3 DIV SWAP1 POP SWAP3 SWAP2 POP POP JUMP JUMPDEST PUSH0 DUP1 REVERT JUMPDEST PUSH0 PUSH10 0xFFFFFFFFFFFFFFFFFFFF DUP3 AND SWAP1 POP SWAP2 SWAP1 POP JUMP JUMPDEST PUSH2 0x3C8 DUP2 PUSH2 0x3AA JUMP JUMPDEST DUP2 EQ PUSH2 0x3D2 JUMPI PUSH0 DUP1 REVERT JUMPDEST POP JUMP JUMPDEST PUSH0 DUP2 MLOAD SWAP1 POP PUSH2 0x3E3 DUP2 PUSH2 0x3BF JUMP JUMPDEST SWAP3 SWAP2 POP POP JUMP JUMPDEST PUSH0 DUP2 SWAP1 POP SWAP2 SWAP1 POP JUMP JUMPDEST PUSH2 0x3FB DUP2 PUSH2 0x3E9 JUMP JUMPDEST DUP2 EQ PUSH2 0x405 JUMPI PUSH0 DUP1 REVERT JUMPDEST POP JUMP JUMPDEST PUSH0 DUP2 MLOAD SWAP1 POP PUSH2 0x416 DUP2 PUSH2 0x3F2 JUMP JUMPDEST SWAP3 SWAP2 POP POP JUMP JUMPDEST PUSH2 0x425 DUP2 PUSH2 0x232 JUMP JUMPDEST DUP2 EQ PUSH2 0x42F JUMPI PUSH0 DUP1 REVERT JUMPDEST POP JUMP JUMPDEST PUSH0 DUP2 MLOAD SWAP1 POP PUSH2 0x440 DUP2 PUSH2 0x41C JUMP JUMPDEST SWAP3 SWAP2 POP POP JUMP JUMPDEST PUSH0 DUP1 PUSH0 DUP1 PUSH0 PUSH1 0xA0 DUP7 DUP9 SUB SLT ISZERO PUSH2 0x45F JUMPI PUSH2 0x45E PUSH2 0x3A6 JUMP JUMPDEST JUMPDEST PUSH0 PUSH2 0x46C DUP9 DUP3 DUP10 ADD PUSH2 0x3D5 JUMP JUMPDEST SWAP6 POP POP PUSH1 0x20 PUSH2 0x47D DUP9 DUP3 DUP10 ADD PUSH2 0x408 JUMP JUMPDEST SWAP5 POP POP PUSH1 0x40 PUSH2 0x48E DUP9 DUP3 DUP10 ADD PUSH2 0x432 JUMP JUMPDEST SWAP4 POP POP PUSH1 0x60 PUSH2 0x49F DUP9 DUP3 DUP10 ADD PUSH2 0x432 JUMP JUMPDEST SWAP3 POP POP PUSH1 0x80 PUSH2 0x4B0 DUP9 DUP3 DUP10 ADD PUSH2 0x3D5 JUMP JUMPDEST SWAP2 POP POP SWAP3 SWAP6 POP SWAP3 SWAP6 SWAP1 SWAP4 POP JUMP JUMPDEST PUSH0 PUSH2 0x4C7 DUP3 PUSH2 0x3E9 JUMP JUMPDEST SWAP2 POP PUSH2 0x4D2 DUP4 PUSH2 0x3E9 JUMP JUMPDEST SWAP3 POP DUP3 DUP3 MUL PUSH2 0x4E0 DUP2 PUSH2 0x3E9 JUMP JUMPDEST SWAP2 POP PUSH32 0x8000000000000000000000000000000000000000000000000000000000000000 DUP5 EQ PUSH0 DUP5 SLT AND ISZERO PUSH2 0x517 JUMPI PUSH2 0x516 PUSH2 0x2DB JUMP JUMPDEST JUMPDEST DUP3 DUP3 SDIV DUP5 EQ DUP4 ISZERO OR PUSH2 0x52C JUMPI PUSH2 0x52B PUSH2 0x2DB JUMP JUMPDEST JUMPDEST POP SWAP3 SWAP2 POP POP JUMP INVALID LOG2 PUSH5 0x6970667358 0x22 SLT KECCAK256 GASLIMIT 0xB3 SWAP11 LOG4 0xE8 MOD SWAP7 REVERT PUSH16 0x2E14C4433D37364468B284D72456076D 0xAA 0x21 0xE7 PUSH24 0xF11EC764736F6C6343000816003300000000000000000000 "
		},
		"gasEstimates": {
			"creation": {
				"codeDepositCost": "277000",
				"executionCost": "22421",
				"totalCost": "299421"
			},
			"external": {
				"fund()": "infinite",
				"minimumUSD()": "2402"
			}
		},
		"methodIdentifiers": {
			"fund()": "b60d4288",
			"minimumUSD()": "3430a88c"
		}
	},
	"abi": [
		{
			"inputs": [],
			"name": "fund",
			"outputs": [],
			"stateMutability": "payable",
			"type": "function"
		},
		{
			"inputs": [],
			"name": "minimumUSD",
			"outputs": [
				{
					"internalType": "uint256",
					"name": "",
					"type": "uint256"
				}
			],
			"stateMutability": "view",
			"type": "function"
		}
	]
}